{
  "abi": [
    {
      "type": "constructor",
      "inputs": [
        {
          "name": "_asset",
          "type": "address",
          "internalType": "contract IERC20"
        },
        {
          "name": "_vault",
          "type": "address",
          "internalType": "address"
        },
        {
          "name": "apy_",
          "type": "uint256",
          "internalType": "uint256"
        },
        {
          "name": "risk_",
          "type": "uint256",
          "internalType": "uint256"
        },
        {
          "name": "liquidity_",
          "type": "uint256",
          "internalType": "uint256"
        },
        {
          "name": "cost_",
          "type": "uint256",
          "internalType": "uint256"
        }
      ],
      "stateMutability": "nonpayable"
    },
    {
      "type": "function",
      "name": "_apy",
      "inputs": [],
      "outputs": [
        {
          "name": "",
          "type": "uint256",
          "internalType": "uint256"
        }
      ],
      "stateMutability": "view"
    },
    {
      "type": "function",
      "name": "_cost",
      "inputs": [],
      "outputs": [
        {
          "name": "",
          "type": "uint256",
          "internalType": "uint256"
        }
      ],
      "stateMutability": "view"
    },
    {
      "type": "function",
      "name": "_liquidity",
      "inputs": [],
      "outputs": [
        {
          "name": "",
          "type": "uint256",
          "internalType": "uint256"
        }
      ],
      "stateMutability": "view"
    },
    {
      "type": "function",
      "name": "_risk",
      "inputs": [],
      "outputs": [
        {
          "name": "",
          "type": "uint256",
          "internalType": "uint256"
        }
      ],
      "stateMutability": "view"
    },
    {
      "type": "function",
      "name": "apy",
      "inputs": [],
      "outputs": [
        {
          "name": "",
          "type": "uint256",
          "internalType": "uint256"
        }
      ],
      "stateMutability": "view"
    },
    {
      "type": "function",
      "name": "asset",
      "inputs": [],
      "outputs": [
        {
          "name": "",
          "type": "address",
          "internalType": "contract IERC20"
        }
      ],
      "stateMutability": "view"
    },
    {
      "type": "function",
      "name": "cost",
      "inputs": [],
      "outputs": [
        {
          "name": "",
          "type": "uint256",
          "internalType": "uint256"
        }
      ],
      "stateMutability": "view"
    },
    {
      "type": "function",
      "name": "invest",
      "inputs": [
        {
          "name": "amount",
          "type": "uint256",
          "internalType": "uint256"
        }
      ],
      "outputs": [],
      "stateMutability": "nonpayable"
    },
    {
      "type": "function",
      "name": "liquidityScore",
      "inputs": [],
      "outputs": [
        {
          "name": "",
          "type": "uint256",
          "internalType": "uint256"
        }
      ],
      "stateMutability": "view"
    },
    {
      "type": "function",
      "name": "riskScore",
      "inputs": [],
      "outputs": [
        {
          "name": "",
          "type": "uint256",
          "internalType": "uint256"
        }
      ],
      "stateMutability": "view"
    },
    {
      "type": "function",
      "name": "simulateLoss",
      "inputs": [
        {
          "name": "amount",
          "type": "uint256",
          "internalType": "uint256"
        }
      ],
      "outputs": [],
      "stateMutability": "nonpayable"
    },
    {
      "type": "function",
      "name": "simulateProfit",
      "inputs": [
        {
          "name": "_amount",
          "type": "uint256",
          "internalType": "uint256"
        }
      ],
      "outputs": [],
      "stateMutability": "nonpayable"
    },
    {
      "type": "function",
      "name": "totalAssets",
      "inputs": [
        {
          "name": "",
          "type": "address",
          "internalType": "address"
        }
      ],
      "outputs": [
        {
          "name": "",
          "type": "uint256",
          "internalType": "uint256"
        }
      ],
      "stateMutability": "view"
    },
    {
      "type": "function",
      "name": "totalManagedAssets",
      "inputs": [],
      "outputs": [
        {
          "name": "",
          "type": "uint256",
          "internalType": "uint256"
        }
      ],
      "stateMutability": "view"
    },
    {
      "type": "function",
      "name": "vault",
      "inputs": [],
      "outputs": [
        {
          "name": "",
          "type": "address",
          "internalType": "address"
        }
      ],
      "stateMutability": "view"
    },
    {
      "type": "function",
      "name": "withdraw",
      "inputs": [
        {
          "name": "amount",
          "type": "uint256",
          "internalType": "uint256"
        }
      ],
      "outputs": [
        {
          "name": "",
          "type": "uint256",
          "internalType": "uint256"
        }
      ],
      "stateMutability": "nonpayable"
    },
    {
      "type": "error",
      "name": "SafeERC20FailedOperation",
      "inputs": [
        {
          "name": "token",
          "type": "address",
          "internalType": "address"
        }
      ]
    }
  ],
  "bytecode": {
    "object": "0x60a060405234801561000f575f5ffd5b50604051610e6a380380610e6a83398181016040528101906100319190610197565b8573ffffffffffffffffffffffffffffffffffffffff1660808173ffffffffffffffffffffffffffffffffffffffff1681525050845f5f6101000a81548173ffffffffffffffffffffffffffffffffffffffff021916908373ffffffffffffffffffffffffffffffffffffffff16021790555083600281905550826003819055508160048190555080600581905550505050505050610220565b5f5ffd5b5f73ffffffffffffffffffffffffffffffffffffffff82169050919050565b5f6100f8826100cf565b9050919050565b5f610109826100ee565b9050919050565b610119816100ff565b8114610123575f5ffd5b50565b5f8151905061013481610110565b92915050565b610143816100ee565b811461014d575f5ffd5b50565b5f8151905061015e8161013a565b92915050565b5f819050919050565b61017681610164565b8114610180575f5ffd5b50565b5f815190506101918161016d565b92915050565b5f5f5f5f5f5f60c087890312156101b1576101b06100cb565b5b5f6101be89828a01610126565b96505060206101cf89828a01610150565b95505060406101e089828a01610183565b94505060606101f189828a01610183565b935050608061020289828a01610183565b92505060a061021389828a01610183565b9150509295509295509295565b608051610c0f61025b5f395f81816103ab015281816104cd0152818161051c015281816105640152818161061a01526106b00152610c0f5ff3fe608060405234801561000f575f5ffd5b50600436106100fe575f3560e01c80634ed21ff211610095578063bfd0299111610064578063bfd0299114610278578063c5abea6a14610296578063f3e0ffbf146102b2578063fbfa77cf146102e2576100fe565b80634ed21ff2146102025780637f9aa1cf14610220578063b35c86621461023e578063b4940afe1461025c576100fe565b80632e1a7d4d116100d15780632e1a7d4d1461017857806338d52e0f146101a85780633bcfc4b8146101c6578063491d0a56146101e4576100fe565b806304305f421461010257806305b2bfb01461012057806313faede61461013e5780632afcf4801461015c575b5f5ffd5b61010a610300565b6040516101179190610914565b60405180910390f35b610128610306565b6040516101359190610914565b60405180910390f35b61014661030c565b6040516101539190610914565b60405180910390f35b6101766004803603810190610171919061095b565b610315565b005b610192600480360381019061018d919061095b565b61040b565b60405161019f9190610914565b60405180910390f35b6101b061051a565b6040516101bd9190610a00565b60405180910390f35b6101ce61053e565b6040516101db9190610914565b60405180910390f35b6101ec610547565b6040516101f99190610914565b60405180910390f35b61020a61054d565b6040516102179190610914565b60405180910390f35b610228610556565b6040516102359190610914565b60405180910390f35b61024661055c565b6040516102539190610914565b60405180910390f35b6102766004803603810190610271919061095b565b610562565b005b610280610605565b60405161028d9190610914565b60405180910390f35b6102b060048036038101906102ab919061095b565b61060e565b005b6102cc60048036038101906102c79190610a54565b610752565b6040516102d99190610914565b60405180910390f35b6102ea61075d565b6040516102f79190610a8e565b60405180910390f35b60055481565b60015481565b5f600554905090565b5f5f9054906101000a900473ffffffffffffffffffffffffffffffffffffffff1673ffffffffffffffffffffffffffffffffffffffff163373ffffffffffffffffffffffffffffffffffffffff16146103a3576040517f08c379a000000000000000000000000000000000000000000000000000000000815260040161039a90610b01565b60405180910390fd5b6103f03330837f000000000000000000000000000000000000000000000000000000000000000073ffffffffffffffffffffffffffffffffffffffff16610781909392919063ffffffff16565b8060015f8282546104019190610b4c565b9250508190555050565b5f5f5f9054906101000a900473ffffffffffffffffffffffffffffffffffffffff1673ffffffffffffffffffffffffffffffffffffffff163373ffffffffffffffffffffffffffffffffffffffff161461049a576040517f08c379a000000000000000000000000000000000000000000000000000000000815260040161049190610b01565b60405180910390fd5b5f8290506001548111156104ae5760015490505b8060015f8282546104bf9190610b7f565b9250508190555061051133827f000000000000000000000000000000000000000000000000000000000000000073ffffffffffffffffffffffffffffffffffffffff166107d69092919063ffffffff16565b80915050919050565b7f000000000000000000000000000000000000000000000000000000000000000081565b5f600254905090565b60045481565b5f600454905090565b60035481565b60025481565b7f000000000000000000000000000000000000000000000000000000000000000073ffffffffffffffffffffffffffffffffffffffff166340c10f1930836040518363ffffffff1660e01b81526004016105bd929190610bb2565b5f604051808303815f87803b1580156105d4575f5ffd5b505af11580156105e6573d5f5f3e3d5ffd5b505050508060015f8282546105fb9190610b4c565b9250508190555050565b5f600354905090565b6001548111156106ae577f000000000000000000000000000000000000000000000000000000000000000073ffffffffffffffffffffffffffffffffffffffff16639dc29fac306001546040518363ffffffff1660e01b8152600401610675929190610bb2565b5f604051808303815f87803b15801561068c575f5ffd5b505af115801561069e573d5f5f3e3d5ffd5b505050505f60018190555061074f565b7f000000000000000000000000000000000000000000000000000000000000000073ffffffffffffffffffffffffffffffffffffffff16639dc29fac30836040518363ffffffff1660e01b8152600401610709929190610bb2565b5f604051808303815f87803b158015610720575f5ffd5b505af1158015610732573d5f5f3e3d5ffd5b505050508060015f8282546107479190610b7f565b925050819055505b50565b5f6001549050919050565b5f5f9054906101000a900473ffffffffffffffffffffffffffffffffffffffff1681565b61078f848484846001610829565b6107d057836040517f5274afe70000000000000000000000000000000000000000000000000000000081526004016107c79190610a8e565b60405180910390fd5b50505050565b6107e3838383600161089a565b61082457826040517f5274afe700000000000000000000000000000000000000000000000000000000815260040161081b9190610a8e565b60405180910390fd5b505050565b5f5f6323b872dd60e01b9050604051815f525f1960601c87166004525f1960601c86166024528460445260205f60645f5f8c5af1925060015f5114831661088757838315161561087b573d5f823e3d81fd5b5f883b113d1516831692505b806040525f606052505095945050505050565b5f5f63a9059cbb60e01b9050604051815f525f1960601c86166004528460245260205f60445f5f8b5af1925060015f511483166108ee5783831516156108e2573d5f823e3d81fd5b5f873b113d1516831692505b806040525050949350505050565b5f819050919050565b61090e816108fc565b82525050565b5f6020820190506109275f830184610905565b92915050565b5f5ffd5b61093a816108fc565b8114610944575f5ffd5b50565b5f8135905061095581610931565b92915050565b5f602082840312156109705761096f61092d565b5b5f61097d84828501610947565b91505092915050565b5f73ffffffffffffffffffffffffffffffffffffffff82169050919050565b5f819050919050565b5f6109c86109c36109be84610986565b6109a5565b610986565b9050919050565b5f6109d9826109ae565b9050919050565b5f6109ea826109cf565b9050919050565b6109fa816109e0565b82525050565b5f602082019050610a135f8301846109f1565b92915050565b5f610a2382610986565b9050919050565b610a3381610a19565b8114610a3d575f5ffd5b50565b5f81359050610a4e81610a2a565b92915050565b5f60208284031215610a6957610a6861092d565b5b5f610a7684828501610a40565b91505092915050565b610a8881610a19565b82525050565b5f602082019050610aa15f830184610a7f565b92915050565b5f82825260208201905092915050565b7f4f6e6c79207661756c74000000000000000000000000000000000000000000005f82015250565b5f610aeb600a83610aa7565b9150610af682610ab7565b602082019050919050565b5f6020820190508181035f830152610b1881610adf565b9050919050565b7f4e487b71000000000000000000000000000000000000000000000000000000005f52601160045260245ffd5b5f610b56826108fc565b9150610b61836108fc565b9250828201905080821115610b7957610b78610b1f565b5b92915050565b5f610b89826108fc565b9150610b94836108fc565b9250828203905081811115610bac57610bab610b1f565b5b92915050565b5f604082019050610bc55f830185610a7f565b610bd26020830184610905565b939250505056fea2646970667358221220bfceef11566f94c1d9ba79fa392a1e55f55bf53ab6f0c1d04c88a9258d20113f64736f6c63430008210033",
    "linkReferences": {}
  },
  "methodIdentifiers": {
    "_apy()": "b35c8662",
    "_cost()": "04305f42",
    "_liquidity()": "491d0a56",
    "_risk()": "7f9aa1cf",
    "apy()": "3bcfc4b8",
    "asset()": "38d52e0f",
    "cost()": "13faede6",
    "invest(uint256)": "2afcf480",
    "liquidityScore()": "4ed21ff2",
    "riskScore()": "bfd02991",
    "simulateLoss(uint256)": "c5abea6a",
    "simulateProfit(uint256)": "b4940afe",
    "totalAssets(address)": "f3e0ffbf",
    "totalManagedAssets()": "05b2bfb0",
    "vault()": "fbfa77cf",
    "withdraw(uint256)": "2e1a7d4d"
  },
  "id": 43
}