{
  "abi": [
    {
      "type": "constructor",
      "inputs": [
        {
          "name": "_asset",
          "type": "address",
          "internalType": "contract IERC20"
        },
        {
          "name": "_name",
          "type": "string",
          "internalType": "string"
        },
        {
          "name": "_symbol",
          "type": "string",
          "internalType": "string"
        },
        {
          "name": "_managementFee",
          "type": "uint256",
          "internalType": "uint256"
        }
      ],
      "stateMutability": "nonpayable"
    },
    {
      "type": "function",
      "name": "INVEST_PERCENTAGE",
      "inputs": [],
      "outputs": [
        {
          "name": "",
          "type": "uint256",
          "internalType": "uint256"
        }
      ],
      "stateMutability": "view"
    },
    {
      "type": "function",
      "name": "activeStrategy",
      "inputs": [],
      "outputs": [
        {
          "name": "",
          "type": "address",
          "internalType": "address"
        }
      ],
      "stateMutability": "view"
    },
    {
      "type": "function",
      "name": "activeStrategyId",
      "inputs": [],
      "outputs": [
        {
          "name": "",
          "type": "uint256",
          "internalType": "uint256"
        }
      ],
      "stateMutability": "view"
    },
    {
      "type": "function",
      "name": "allowance",
      "inputs": [
        {
          "name": "owner",
          "type": "address",
          "internalType": "address"
        },
        {
          "name": "spender",
          "type": "address",
          "internalType": "address"
        }
      ],
      "outputs": [
        {
          "name": "",
          "type": "uint256",
          "internalType": "uint256"
        }
      ],
      "stateMutability": "view"
    },
    {
      "type": "function",
      "name": "approve",
      "inputs": [
        {
          "name": "spender",
          "type": "address",
          "internalType": "address"
        },
        {
          "name": "value",
          "type": "uint256",
          "internalType": "uint256"
        }
      ],
      "outputs": [
        {
          "name": "",
          "type": "bool",
          "internalType": "bool"
        }
      ],
      "stateMutability": "nonpayable"
    },
    {
      "type": "function",
      "name": "asset",
      "inputs": [],
      "outputs": [
        {
          "name": "",
          "type": "address",
          "internalType": "address"
        }
      ],
      "stateMutability": "view"
    },
    {
      "type": "function",
      "name": "balanceOf",
      "inputs": [
        {
          "name": "account",
          "type": "address",
          "internalType": "address"
        }
      ],
      "outputs": [
        {
          "name": "",
          "type": "uint256",
          "internalType": "uint256"
        }
      ],
      "stateMutability": "view"
    },
    {
      "type": "function",
      "name": "collectManagementFee",
      "inputs": [],
      "outputs": [],
      "stateMutability": "pure"
    },
    {
      "type": "function",
      "name": "convertToAssets",
      "inputs": [
        {
          "name": "shares",
          "type": "uint256",
          "internalType": "uint256"
        }
      ],
      "outputs": [
        {
          "name": "",
          "type": "uint256",
          "internalType": "uint256"
        }
      ],
      "stateMutability": "view"
    },
    {
      "type": "function",
      "name": "convertToShares",
      "inputs": [
        {
          "name": "assets",
          "type": "uint256",
          "internalType": "uint256"
        }
      ],
      "outputs": [
        {
          "name": "",
          "type": "uint256",
          "internalType": "uint256"
        }
      ],
      "stateMutability": "view"
    },
    {
      "type": "function",
      "name": "decimals",
      "inputs": [],
      "outputs": [
        {
          "name": "",
          "type": "uint8",
          "internalType": "uint8"
        }
      ],
      "stateMutability": "view"
    },
    {
      "type": "function",
      "name": "deposit",
      "inputs": [
        {
          "name": "assets",
          "type": "uint256",
          "internalType": "uint256"
        },
        {
          "name": "receiver",
          "type": "address",
          "internalType": "address"
        }
      ],
      "outputs": [
        {
          "name": "shares",
          "type": "uint256",
          "internalType": "uint256"
        }
      ],
      "stateMutability": "nonpayable"
    },
    {
      "type": "function",
      "name": "getVaultInfo",
      "inputs": [],
      "outputs": [
        {
          "name": "assetAddress",
          "type": "address",
          "internalType": "address"
        },
        {
          "name": "totalAssets_",
          "type": "uint256",
          "internalType": "uint256"
        },
        {
          "name": "totalSupply_",
          "type": "uint256",
          "internalType": "uint256"
        },
        {
          "name": "exchangeRate",
          "type": "uint256",
          "internalType": "uint256"
        },
        {
          "name": "managementFee_",
          "type": "uint256",
          "internalType": "uint256"
        }
      ],
      "stateMutability": "view"
    },
    {
      "type": "function",
      "name": "invest",
      "inputs": [],
      "outputs": [],
      "stateMutability": "nonpayable"
    },
    {
      "type": "function",
      "name": "lastFeeUpdate",
      "inputs": [],
      "outputs": [
        {
          "name": "",
          "type": "uint256",
          "internalType": "uint256"
        }
      ],
      "stateMutability": "view"
    },
    {
      "type": "function",
      "name": "managementFee",
      "inputs": [],
      "outputs": [
        {
          "name": "",
          "type": "uint256",
          "internalType": "uint256"
        }
      ],
      "stateMutability": "view"
    },
    {
      "type": "function",
      "name": "maxDeposit",
      "inputs": [
        {
          "name": "",
          "type": "address",
          "internalType": "address"
        }
      ],
      "outputs": [
        {
          "name": "",
          "type": "uint256",
          "internalType": "uint256"
        }
      ],
      "stateMutability": "view"
    },
    {
      "type": "function",
      "name": "maxMint",
      "inputs": [
        {
          "name": "",
          "type": "address",
          "internalType": "address"
        }
      ],
      "outputs": [
        {
          "name": "",
          "type": "uint256",
          "internalType": "uint256"
        }
      ],
      "stateMutability": "view"
    },
    {
      "type": "function",
      "name": "maxRedeem",
      "inputs": [
        {
          "name": "owner",
          "type": "address",
          "internalType": "address"
        }
      ],
      "outputs": [
        {
          "name": "",
          "type": "uint256",
          "internalType": "uint256"
        }
      ],
      "stateMutability": "view"
    },
    {
      "type": "function",
      "name": "maxWithdraw",
      "inputs": [
        {
          "name": "owner",
          "type": "address",
          "internalType": "address"
        }
      ],
      "outputs": [
        {
          "name": "",
          "type": "uint256",
          "internalType": "uint256"
        }
      ],
      "stateMutability": "view"
    },
    {
      "type": "function",
      "name": "mint",
      "inputs": [
        {
          "name": "shares",
          "type": "uint256",
          "internalType": "uint256"
        },
        {
          "name": "receiver",
          "type": "address",
          "internalType": "address"
        }
      ],
      "outputs": [
        {
          "name": "assets",
          "type": "uint256",
          "internalType": "uint256"
        }
      ],
      "stateMutability": "nonpayable"
    },
    {
      "type": "function",
      "name": "name",
      "inputs": [],
      "outputs": [
        {
          "name": "",
          "type": "string",
          "internalType": "string"
        }
      ],
      "stateMutability": "view"
    },
    {
      "type": "function",
      "name": "owner",
      "inputs": [],
      "outputs": [
        {
          "name": "",
          "type": "address",
          "internalType": "address"
        }
      ],
      "stateMutability": "view"
    },
    {
      "type": "function",
      "name": "previewDeposit",
      "inputs": [
        {
          "name": "assets",
          "type": "uint256",
          "internalType": "uint256"
        }
      ],
      "outputs": [
        {
          "name": "",
          "type": "uint256",
          "internalType": "uint256"
        }
      ],
      "stateMutability": "view"
    },
    {
      "type": "function",
      "name": "previewMint",
      "inputs": [
        {
          "name": "shares",
          "type": "uint256",
          "internalType": "uint256"
        }
      ],
      "outputs": [
        {
          "name": "",
          "type": "uint256",
          "internalType": "uint256"
        }
      ],
      "stateMutability": "view"
    },
    {
      "type": "function",
      "name": "previewRedeem",
      "inputs": [
        {
          "name": "shares",
          "type": "uint256",
          "internalType": "uint256"
        }
      ],
      "outputs": [
        {
          "name": "",
          "type": "uint256",
          "internalType": "uint256"
        }
      ],
      "stateMutability": "view"
    },
    {
      "type": "function",
      "name": "previewWithdraw",
      "inputs": [
        {
          "name": "assets",
          "type": "uint256",
          "internalType": "uint256"
        }
      ],
      "outputs": [
        {
          "name": "",
          "type": "uint256",
          "internalType": "uint256"
        }
      ],
      "stateMutability": "view"
    },
    {
      "type": "function",
      "name": "rebalance",
      "inputs": [],
      "outputs": [],
      "stateMutability": "nonpayable"
    },
    {
      "type": "function",
      "name": "redeem",
      "inputs": [
        {
          "name": "shares",
          "type": "uint256",
          "internalType": "uint256"
        },
        {
          "name": "receiver",
          "type": "address",
          "internalType": "address"
        },
        {
          "name": "owner",
          "type": "address",
          "internalType": "address"
        }
      ],
      "outputs": [
        {
          "name": "assets",
          "type": "uint256",
          "internalType": "uint256"
        }
      ],
      "stateMutability": "nonpayable"
    },
    {
      "type": "function",
      "name": "renounceOwnership",
      "inputs": [],
      "outputs": [],
      "stateMutability": "nonpayable"
    },
    {
      "type": "function",
      "name": "setManagementFee",
      "inputs": [
        {
          "name": "_newFee",
          "type": "uint256",
          "internalType": "uint256"
        }
      ],
      "outputs": [],
      "stateMutability": "nonpayable"
    },
    {
      "type": "function",
      "name": "setStrategies",
      "inputs": [
        {
          "name": "_strats",
          "type": "address[3]",
          "internalType": "contract IStrategy[3]"
        }
      ],
      "outputs": [],
      "stateMutability": "nonpayable"
    },
    {
      "type": "function",
      "name": "strategies",
      "inputs": [
        {
          "name": "",
          "type": "uint256",
          "internalType": "uint256"
        }
      ],
      "outputs": [
        {
          "name": "",
          "type": "address",
          "internalType": "contract IStrategy"
        }
      ],
      "stateMutability": "view"
    },
    {
      "type": "function",
      "name": "strategyOrder",
      "inputs": [
        {
          "name": "",
          "type": "uint256",
          "internalType": "uint256"
        }
      ],
      "outputs": [
        {
          "name": "",
          "type": "uint256",
          "internalType": "uint256"
        }
      ],
      "stateMutability": "view"
    },
    {
      "type": "function",
      "name": "symbol",
      "inputs": [],
      "outputs": [
        {
          "name": "",
          "type": "string",
          "internalType": "string"
        }
      ],
      "stateMutability": "view"
    },
    {
      "type": "function",
      "name": "totalAssets",
      "inputs": [],
      "outputs": [
        {
          "name": "",
          "type": "uint256",
          "internalType": "uint256"
        }
      ],
      "stateMutability": "view"
    },
    {
      "type": "function",
      "name": "totalSupply",
      "inputs": [],
      "outputs": [
        {
          "name": "",
          "type": "uint256",
          "internalType": "uint256"
        }
      ],
      "stateMutability": "view"
    },
    {
      "type": "function",
      "name": "transfer",
      "inputs": [
        {
          "name": "to",
          "type": "address",
          "internalType": "address"
        },
        {
          "name": "value",
          "type": "uint256",
          "internalType": "uint256"
        }
      ],
      "outputs": [
        {
          "name": "",
          "type": "bool",
          "internalType": "bool"
        }
      ],
      "stateMutability": "nonpayable"
    },
    {
      "type": "function",
      "name": "transferFrom",
      "inputs": [
        {
          "name": "from",
          "type": "address",
          "internalType": "address"
        },
        {
          "name": "to",
          "type": "address",
          "internalType": "address"
        },
        {
          "name": "value",
          "type": "uint256",
          "internalType": "uint256"
        }
      ],
      "outputs": [
        {
          "name": "",
          "type": "bool",
          "internalType": "bool"
        }
      ],
      "stateMutability": "nonpayable"
    },
    {
      "type": "function",
      "name": "transferOwnership",
      "inputs": [
        {
          "name": "newOwner",
          "type": "address",
          "internalType": "address"
        }
      ],
      "outputs": [],
      "stateMutability": "nonpayable"
    },
    {
      "type": "function",
      "name": "withdraw",
      "inputs": [
        {
          "name": "assets",
          "type": "uint256",
          "internalType": "uint256"
        },
        {
          "name": "receiver",
          "type": "address",
          "internalType": "address"
        },
        {
          "name": "owner",
          "type": "address",
          "internalType": "address"
        }
      ],
      "outputs": [
        {
          "name": "shares",
          "type": "uint256",
          "internalType": "uint256"
        }
      ],
      "stateMutability": "nonpayable"
    },
    {
      "type": "event",
      "name": "Approval",
      "inputs": [
        {
          "name": "owner",
          "type": "address",
          "indexed": true,
          "internalType": "address"
        },
        {
          "name": "spender",
          "type": "address",
          "indexed": true,
          "internalType": "address"
        },
        {
          "name": "value",
          "type": "uint256",
          "indexed": false,
          "internalType": "uint256"
        }
      ],
      "anonymous": false
    },
    {
      "type": "event",
      "name": "Deposit",
      "inputs": [
        {
          "name": "sender",
          "type": "address",
          "indexed": true,
          "internalType": "address"
        },
        {
          "name": "owner",
          "type": "address",
          "indexed": true,
          "internalType": "address"
        },
        {
          "name": "assets",
          "type": "uint256",
          "indexed": false,
          "internalType": "uint256"
        },
        {
          "name": "shares",
          "type": "uint256",
          "indexed": false,
          "internalType": "uint256"
        }
      ],
      "anonymous": false
    },
    {
      "type": "event",
      "name": "FeesCollected",
      "inputs": [
        {
          "name": "amount",
          "type": "uint256",
          "indexed": false,
          "internalType": "uint256"
        }
      ],
      "anonymous": false
    },
    {
      "type": "event",
      "name": "OwnershipTransferred",
      "inputs": [
        {
          "name": "previousOwner",
          "type": "address",
          "indexed": true,
          "internalType": "address"
        },
        {
          "name": "newOwner",
          "type": "address",
          "indexed": true,
          "internalType": "address"
        }
      ],
      "anonymous": false
    },
    {
      "type": "event",
      "name": "Transfer",
      "inputs": [
        {
          "name": "from",
          "type": "address",
          "indexed": true,
          "internalType": "address"
        },
        {
          "name": "to",
          "type": "address",
          "indexed": true,
          "internalType": "address"
        },
        {
          "name": "value",
          "type": "uint256",
          "indexed": false,
          "internalType": "uint256"
        }
      ],
      "anonymous": false
    },
    {
      "type": "event",
      "name": "Withdraw",
      "inputs": [
        {
          "name": "sender",
          "type": "address",
          "indexed": true,
          "internalType": "address"
        },
        {
          "name": "receiver",
          "type": "address",
          "indexed": true,
          "internalType": "address"
        },
        {
          "name": "owner",
          "type": "address",
          "indexed": true,
          "internalType": "address"
        },
        {
          "name": "assets",
          "type": "uint256",
          "indexed": false,
          "internalType": "uint256"
        },
        {
          "name": "shares",
          "type": "uint256",
          "indexed": false,
          "internalType": "uint256"
        }
      ],
      "anonymous": false
    },
    {
      "type": "event",
      "name": "invested",
      "inputs": [
        {
          "name": "_activeStrategyId",
          "type": "uint256",
          "indexed": false,
          "internalType": "uint256"
        },
        {
          "name": "amount",
          "type": "uint256",
          "indexed": false,
          "internalType": "uint256"
        }
      ],
      "anonymous": false
    },
    {
      "type": "event",
      "name": "managementFeeUpdated",
      "inputs": [
        {
          "name": "newFee",
          "type": "uint256",
          "indexed": false,
          "internalType": "uint256"
        }
      ],
      "anonymous": false
    },
    {
      "type": "error",
      "name": "ERC20InsufficientAllowance",
      "inputs": [
        {
          "name": "spender",
          "type": "address",
          "internalType": "address"
        },
        {
          "name": "allowance",
          "type": "uint256",
          "internalType": "uint256"
        },
        {
          "name": "needed",
          "type": "uint256",
          "internalType": "uint256"
        }
      ]
    },
    {
      "type": "error",
      "name": "ERC20InsufficientBalance",
      "inputs": [
        {
          "name": "sender",
          "type": "address",
          "internalType": "address"
        },
        {
          "name": "balance",
          "type": "uint256",
          "internalType": "uint256"
        },
        {
          "name": "needed",
          "type": "uint256",
          "internalType": "uint256"
        }
      ]
    },
    {
      "type": "error",
      "name": "ERC20InvalidApprover",
      "inputs": [
        {
          "name": "approver",
          "type": "address",
          "internalType": "address"
        }
      ]
    },
    {
      "type": "error",
      "name": "ERC20InvalidReceiver",
      "inputs": [
        {
          "name": "receiver",
          "type": "address",
          "internalType": "address"
        }
      ]
    },
    {
      "type": "error",
      "name": "ERC20InvalidSender",
      "inputs": [
        {
          "name": "sender",
          "type": "address",
          "internalType": "address"
        }
      ]
    },
    {
      "type": "error",
      "name": "ERC20InvalidSpender",
      "inputs": [
        {
          "name": "spender",
          "type": "address",
          "internalType": "address"
        }
      ]
    },
    {
      "type": "error",
      "name": "ERC4626ExceededMaxDeposit",
      "inputs": [
        {
          "name": "receiver",
          "type": "address",
          "internalType": "address"
        },
        {
          "name": "assets",
          "type": "uint256",
          "internalType": "uint256"
        },
        {
          "name": "max",
          "type": "uint256",
          "internalType": "uint256"
        }
      ]
    },
    {
      "type": "error",
      "name": "ERC4626ExceededMaxMint",
      "inputs": [
        {
          "name": "receiver",
          "type": "address",
          "internalType": "address"
        },
        {
          "name": "shares",
          "type": "uint256",
          "internalType": "uint256"
        },
        {
          "name": "max",
          "type": "uint256",
          "internalType": "uint256"
        }
      ]
    },
    {
      "type": "error",
      "name": "ERC4626ExceededMaxRedeem",
      "inputs": [
        {
          "name": "owner",
          "type": "address",
          "internalType": "address"
        },
        {
          "name": "shares",
          "type": "uint256",
          "internalType": "uint256"
        },
        {
          "name": "max",
          "type": "uint256",
          "internalType": "uint256"
        }
      ]
    },
    {
      "type": "error",
      "name": "ERC4626ExceededMaxWithdraw",
      "inputs": [
        {
          "name": "owner",
          "type": "address",
          "internalType": "address"
        },
        {
          "name": "assets",
          "type": "uint256",
          "internalType": "uint256"
        },
        {
          "name": "max",
          "type": "uint256",
          "internalType": "uint256"
        }
      ]
    },
    {
      "type": "error",
      "name": "OwnableInvalidOwner",
      "inputs": [
        {
          "name": "owner",
          "type": "address",
          "internalType": "address"
        }
      ]
    },
    {
      "type": "error",
      "name": "OwnableUnauthorizedAccount",
      "inputs": [
        {
          "name": "account",
          "type": "address",
          "internalType": "address"
        }
      ]
    },
    {
      "type": "error",
      "name": "ReentrancyGuardReentrantCall",
      "inputs": []
    },
    {
      "type": "error",
      "name": "SafeERC20FailedOperation",
      "inputs": [
        {
          "name": "token",
          "type": "address",
          "internalType": "address"
        }
      ]
    }
  ],
  "bytecode": {
    "object": "0x60c060405234801561000f575f5ffd5b50604051614c41380380614c418339818101604052810190610031919061055d565b3384848481600390816100449190610811565b5080600490816100549190610811565b5050505f5f6100688361017960201b60201c565b915091508161007857601261007a565b805b60ff1660a08160ff16815250508273ffffffffffffffffffffffffffffffffffffffff1660808173ffffffffffffffffffffffffffffffffffffffff16815250505050505f73ffffffffffffffffffffffffffffffffffffffff168173ffffffffffffffffffffffffffffffffffffffff160361012e575f6040517f1e4fbdf700000000000000000000000000000000000000000000000000000000815260040161012591906108ef565b60405180910390fd5b61013d8161024560201b60201c565b50600161015c61015161030860201b60201c565b61033160201b60201c565b5f018190555080600c8190555042600d8190555050505050610908565b5f5f5f61018a61033a60201b60201c565b90505f5f6101e88660405160240160405160208183030381529060405263313ce56760e01b6020820180517bffffffffffffffffffffffffffffffffffffffffffffffffffffffff838183161783525050505061034360201b60201c565b50915091506101fc8361036460201b60201c565b8180156102175750602061021461036b60201b60201c565b10155b8015610228575060ff8016815f1c11155b610233575f5f610239565b6001815f1c5b94509450505050915091565b5f60055f9054906101000a900473ffffffffffffffffffffffffffffffffffffffff1690508160055f6101000a81548173ffffffffffffffffffffffffffffffffffffffff021916908373ffffffffffffffffffffffffffffffffffffffff1602179055508173ffffffffffffffffffffffffffffffffffffffff168173ffffffffffffffffffffffffffffffffffffffff167f8be0079c531659141344cd1fd0a4f28419497f9722a3daafe3b4186f6b6457e060405160405180910390a35050565b5f7f9b779b17422d0df92223018b32b4d1fa46e071723d6817e2486d003becc55f005f1b905090565b5f819050919050565b5f604051905090565b5f5f5f60405f855160208701885afa92505f51915060205190509250925092565b8060405250565b5f3d905090565b5f604051905090565b5f5ffd5b5f5ffd5b5f73ffffffffffffffffffffffffffffffffffffffff82169050919050565b5f6103ac82610383565b9050919050565b5f6103bd826103a2565b9050919050565b6103cd816103b3565b81146103d7575f5ffd5b50565b5f815190506103e8816103c4565b92915050565b5f5ffd5b5f5ffd5b5f601f19601f8301169050919050565b7f4e487b71000000000000000000000000000000000000000000000000000000005f52604160045260245ffd5b61043c826103f6565b810181811067ffffffffffffffff8211171561045b5761045a610406565b5b80604052505050565b5f61046d610372565b90506104798282610433565b919050565b5f67ffffffffffffffff82111561049857610497610406565b5b6104a1826103f6565b9050602081019050919050565b8281835e5f83830152505050565b5f6104ce6104c98461047e565b610464565b9050828152602081018484840111156104ea576104e96103f2565b5b6104f58482856104ae565b509392505050565b5f82601f830112610511576105106103ee565b5b81516105218482602086016104bc565b91505092915050565b5f819050919050565b61053c8161052a565b8114610546575f5ffd5b50565b5f8151905061055781610533565b92915050565b5f5f5f5f608085870312156105755761057461037b565b5b5f610582878288016103da565b945050602085015167ffffffffffffffff8111156105a3576105a261037f565b5b6105af878288016104fd565b935050604085015167ffffffffffffffff8111156105d0576105cf61037f565b5b6105dc878288016104fd565b92505060606105ed87828801610549565b91505092959194509250565b5f81519050919050565b7f4e487b71000000000000000000000000000000000000000000000000000000005f52602260045260245ffd5b5f600282049050600182168061064757607f821691505b60208210810361065a57610659610603565b5b50919050565b5f819050815f5260205f209050919050565b5f6020601f8301049050919050565b5f82821b905092915050565b5f600883026106bc7fffffffffffffffffffffffffffffffffffffffffffffffffffffffffffffffff82610681565b6106c68683610681565b95508019841693508086168417925050509392505050565b5f819050919050565b5f6107016106fc6106f78461052a565b6106de565b61052a565b9050919050565b5f819050919050565b61071a836106e7565b61072e61072682610708565b84845461068d565b825550505050565b5f5f905090565b610745610736565b610750818484610711565b505050565b5f5b828110156107765761076b5f82840161073d565b600181019050610757565b505050565b601f8211156107c957828211156107c85761079581610660565b61079e83610672565b6107a785610672565b60208610156107b4575f90505b8083016107c382840382610755565b505050505b5b505050565b5f82821c905092915050565b5f6107e95f19846008026107ce565b1980831691505092915050565b5f61080183836107da565b9150826002028217905092915050565b61081a826105f9565b67ffffffffffffffff81111561083357610832610406565b5b61083d8254610630565b61084882828561077b565b5f60209050601f831160018114610879575f8415610867578287015190505b61087185826107f6565b8655506108d8565b601f19841661088786610660565b5f5b828110156108ae57848901518255600182019150602085019450602081019050610889565b868310156108cb57848901516108c7601f8916826107da565b8355505b6001600288020188555050505b505050505050565b6108e9816103a2565b82525050565b5f6020820190506109025f8301846108e0565b92915050565b60805160a0516143186109295f395f610ac901525f610afa01526143185ff3fe608060405234801561000f575f5ffd5b5060043610610251575f3560e01c806394bf804d11610144578063c63d75b6116100c1578063d905777e11610085578063d905777e14610779578063dd62ed3e146107a9578063e8b5e51f146107d9578063ef8b30f7146107e3578063f2fde38b14610813578063fe56e2321461082f57610251565b8063c63d75b61461069b578063c6e6f592146106cb578063cd3c4255146106fb578063ce96cb7714610719578063d574ea3d1461074957610251565b8063a9059cbb11610108578063a9059cbb146105bd578063b3d7f6b9146105ed578063b460af941461061d578063b96bedb21461064d578063ba0876521461066b57610251565b806394bf804d1461052b57806395d89b411461055b5780639c016ffd146105795780639dabe55814610583578063a6f7f5d61461059f57610251565b8063402d267d116101d2578063715018a611610196578063715018a6146104a75780637bd37d44146104b15780637d7c2a1c146104e15780637f98aa71146104eb5780638da5cb5b1461050d57610251565b8063402d267d146103c95780634cdad506146103f957806367b950f0146104295780636e553f651461044757806370a082311461047757610251565b8063148529b111610219578063148529b11461032157806318160ddd1461033f57806323b872dd1461035d578063313ce5671461038d57806338d52e0f146103ab57610251565b806301e1d1141461025557806306fdde031461027357806307a2d13a14610291578063095ea7b3146102c15780630a28a477146102f1575b5f5ffd5b61025d61084b565b60405161026a919061314e565b60405180910390f35b61027b6109aa565b60405161028891906131d7565b60405180910390f35b6102ab60048036038101906102a69190613225565b610a3a565b6040516102b8919061314e565b60405180910390f35b6102db60048036038101906102d691906132aa565b610a4c565b6040516102e89190613302565b60405180910390f35b61030b60048036038101906103069190613225565b610a6e565b604051610318919061314e565b60405180910390f35b610329610a81565b604051610336919061314e565b60405180910390f35b610347610a87565b604051610354919061314e565b60405180910390f35b6103776004803603810190610372919061331b565b610a90565b6040516103849190613302565b60405180910390f35b610395610abe565b6040516103a29190613386565b60405180910390f35b6103b3610af7565b6040516103c091906133ae565b60405180910390f35b6103e360048036038101906103de91906133c7565b610b1e565b6040516103f0919061314e565b60405180910390f35b610413600480360381019061040e9190613225565b610b47565b604051610420919061314e565b60405180910390f35b610431610b59565b60405161043e919061314e565b60405180910390f35b610461600480360381019061045c91906133f2565b610b5e565b60405161046e919061314e565b60405180910390f35b610491600480360381019061048c91906133c7565b610bcb565b60405161049e919061314e565b60405180910390f35b6104af610c10565b005b6104cb60048036038101906104c69190613225565b610c23565b6040516104d8919061314e565b60405180910390f35b6104e9610c3c565b005b6104f36110a8565b604051610504959493929190613430565b60405180910390f35b61051561110e565b60405161052291906133ae565b60405180910390f35b610545600480360381019061054091906133f2565b611136565b604051610552919061314e565b60405180910390f35b6105636111a3565b60405161057091906131d7565b60405180910390f35b610581611233565b005b61059d600480360381019061059891906134a6565b611235565b005b6105a76113df565b6040516105b4919061314e565b60405180910390f35b6105d760048036038101906105d291906132aa565b6113e5565b6040516105e49190613302565b60405180910390f35b61060760048036038101906106029190613225565b611407565b604051610614919061314e565b60405180910390f35b610637600480360381019061063291906134d1565b61141a565b604051610644919061314e565b60405180910390f35b6106556118e1565b604051610662919061314e565b60405180910390f35b610685600480360381019061068091906134d1565b6118e7565b604051610692919061314e565b60405180910390f35b6106b560048036038101906106b091906133c7565b611956565b6040516106c2919061314e565b60405180910390f35b6106e560048036038101906106e09190613225565b61197f565b6040516106f2919061314e565b60405180910390f35b610703611991565b60405161071091906133ae565b60405180910390f35b610733600480360381019061072e91906133c7565b6119ce565b604051610740919061314e565b60405180910390f35b610763600480360381019061075e9190613225565b6119e7565b604051610770919061357c565b60405180910390f35b610793600480360381019061078e91906133c7565b611a1b565b6040516107a0919061314e565b60405180910390f35b6107c360048036038101906107be9190613595565b611a2c565b6040516107d0919061314e565b60405180910390f35b6107e1611aae565b005b6107fd60048036038101906107f89190613225565b611e40565b60405161080a919061314e565b60405180910390f35b61082d600480360381019061082891906133c7565b611e52565b005b61084960048036038101906108449190613225565b611ed6565b005b5f5f610855610af7565b73ffffffffffffffffffffffffffffffffffffffff166370a08231306040518263ffffffff1660e01b815260040161088d91906133ae565b602060405180830381865afa1580156108a8573d5f5f3e3d5ffd5b505050506040513d601f19601f820116820180604052508101906108cc91906135e7565b90505f5f90505b60038110156109a257600681600381106108f0576108ef613612565b5b015f9054906101000a900473ffffffffffffffffffffffffffffffffffffffff1673ffffffffffffffffffffffffffffffffffffffff1663f3e0ffbf306040518263ffffffff1660e01b815260040161094991906133ae565b602060405180830381865afa158015610964573d5f5f3e3d5ffd5b505050506040513d601f19601f8201168201806040525081019061098891906135e7565b82610993919061366c565b915080806001019150506108d3565b508091505090565b6060600380546109b9906136cc565b80601f01602080910402602001604051908101604052809291908181526020018280546109e5906136cc565b8015610a305780601f10610a0757610100808354040283529160200191610a30565b820191905f5260205f20905b815481529060010190602001808311610a1357829003601f168201915b5050505050905090565b5f610a45825f611f1f565b9050919050565b5f5f610a56611f77565b9050610a63818585611f7e565b600191505092915050565b5f610a7a826001611f90565b9050919050565b600e5481565b5f600254905090565b5f5f610a9a611f77565b9050610aa7858285611fe8565b610ab285858561207b565b60019150509392505050565b5f610ac761216b565b7f0000000000000000000000000000000000000000000000000000000000000000610af291906136fc565b905090565b5f7f0000000000000000000000000000000000000000000000000000000000000000905090565b5f7fffffffffffffffffffffffffffffffffffffffffffffffffffffffffffffffff9050919050565b5f610b52825f611f1f565b9050919050565b604681565b5f610b67612172565b5f8311610ba9576040517f08c379a0000000000000000000000000000000000000000000000000000000008152600401610ba09061377a565b60405180910390fd5b610bb1612194565b610bbb8383612277565b9050610bc56122f7565b92915050565b5f5f5f8373ffffffffffffffffffffffffffffffffffffffff1673ffffffffffffffffffffffffffffffffffffffff1681526020019081526020015f20549050919050565b610c18612311565b610c215f612398565b565b60098160038110610c32575f80fd5b015f915090505481565b5f5f90505f7f80000000000000000000000000000000000000000000000000000000000000009050610c6c613114565b5f60405180606001604052805f815260200160018152602001600281525090505f5f90505b6003811015610f79575f60068260038110610caf57610cae613612565b5b015f9054906101000a900473ffffffffffffffffffffffffffffffffffffffff1673ffffffffffffffffffffffffffffffffffffffff166313faede66040518163ffffffff1660e01b8152600401602060405180830381865afa158015610d18573d5f5f3e3d5ffd5b505050506040513d601f19601f82011682018060405250810190610d3c91906135e7565b60068360038110610d5057610d4f613612565b5b015f9054906101000a900473ffffffffffffffffffffffffffffffffffffffff1673ffffffffffffffffffffffffffffffffffffffff1663bfd029916040518163ffffffff1660e01b8152600401602060405180830381865afa158015610db9573d5f5f3e3d5ffd5b505050506040513d601f19601f82011682018060405250810190610ddd91906135e7565b60068460038110610df157610df0613612565b5b015f9054906101000a900473ffffffffffffffffffffffffffffffffffffffff1673ffffffffffffffffffffffffffffffffffffffff16634ed21ff26040518163ffffffff1660e01b8152600401602060405180830381865afa158015610e5a573d5f5f3e3d5ffd5b505050506040513d601f19601f82011682018060405250810190610e7e91906135e7565b60068560038110610e9257610e91613612565b5b015f9054906101000a900473ffffffffffffffffffffffffffffffffffffffff1673ffffffffffffffffffffffffffffffffffffffff16633bcfc4b86040518163ffffffff1660e01b8152600401602060405180830381865afa158015610efb573d5f5f3e3d5ffd5b505050506040513d601f19601f82011682018060405250810190610f1f91906135e7565b610f2991906137a1565b610f3391906137e2565b610f3d91906137e2565b905080848360038110610f5357610f52613612565b5b60200201818152505084811315610f6b578094508195505b508080600101915050610c91565b5083600e819055505f5f90505b6003811015611091575f600182610f9d919061366c565b90505b60038110156110835783838260038110610fbd57610fbc613612565b5b602002015160038110610fd357610fd2613612565b5b602002015184848460038110610fec57610feb613612565b5b60200201516003811061100257611001613612565b5b60200201511315611076578281600381106110205761101f613612565b5b602002015183836003811061103857611037613612565b5b60200201518484600381106110505761104f613612565b5b6020020185846003811061106757611066613612565b5b60200201828152508281525050505b8080600101915050610fa0565b508080600101915050610f86565b5080600990816110a19190613a3e565b5050505050565b5f5f5f5f5f6110b5610af7565b94506110bf61084b565b93506110c9610a87565b92505f83146110f65782670de0b6b3a7640000856110e79190613859565b6110f19190613aef565b611100565b670de0b6b3a76400005b9150600c5490509091929394565b5f60055f9054906101000a900473ffffffffffffffffffffffffffffffffffffffff16905090565b5f61113f612172565b5f8311611181576040517f08c379a000000000000000000000000000000000000000000000000000000000815260040161117890613b69565b60405180910390fd5b611189612194565b611193838361245b565b905061119d6122f7565b92915050565b6060600480546111b2906136cc565b80601f01602080910402602001604051908101604052809291908181526020018280546111de906136cc565b80156112295780601f1061120057610100808354040283529160200191611229565b820191905f5260205f20905b81548152906001019060200180831161120c57829003601f168201915b5050505050905090565b565b61123d612311565b5f5f90505b60038110156113cb575f73ffffffffffffffffffffffffffffffffffffffff1682826003811061127557611274613612565b5b6020020160208101906112889190613bc2565b73ffffffffffffffffffffffffffffffffffffffff16036112de576040517f08c379a00000000000000000000000000000000000000000000000000000000081526004016112d590613c37565b60405180910390fd5b5f6001826112ec919061366c565b90505b60038110156113bd5782816003811061130b5761130a613612565b5b60200201602081019061131e9190613bc2565b73ffffffffffffffffffffffffffffffffffffffff1683836003811061134757611346613612565b5b60200201602081019061135a9190613bc2565b73ffffffffffffffffffffffffffffffffffffffff16036113b0576040517f08c379a00000000000000000000000000000000000000000000000000000000081526004016113a790613c9f565b60405180910390fd5b80806001019150506112ef565b508080600101915050611242565b5080600690816113db9190613daa565b5050565b600c5481565b5f5f6113ef611f77565b90506113fc81858561207b565b600191505092915050565b5f611413826001611f1f565b9050919050565b5f611423612172565b5f8411611465576040517f08c379a000000000000000000000000000000000000000000000000000000000815260040161145c90613e78565b60405180910390fd5b61146d612194565b5f611476610af7565b73ffffffffffffffffffffffffffffffffffffffff166370a08231306040518263ffffffff1660e01b81526004016114ae91906133ae565b602060405180830381865afa1580156114c9573d5f5f3e3d5ffd5b505050506040513d601f19601f820116820180604052508101906114ed91906135e7565b9050848110156118c4575f81866115049190613e96565b90505f5f90505b60038110801561151a57505f82115b15611800575f6009826003811061153457611533613612565b5b015490505f6006826003811061154d5761154c613612565b5b015f9054906101000a900473ffffffffffffffffffffffffffffffffffffffff1673ffffffffffffffffffffffffffffffffffffffff1663f3e0ffbf306040518263ffffffff1660e01b81526004016115a691906133ae565b602060405180830381865afa1580156115c1573d5f5f3e3d5ffd5b505050506040513d601f19601f820116820180604052508101906115e591906135e7565b90505f81036115f55750506117ed565b5f8185106116035781611605565b845b90505f611610610af7565b73ffffffffffffffffffffffffffffffffffffffff166370a08231306040518263ffffffff1660e01b815260040161164891906133ae565b602060405180830381865afa158015611663573d5f5f3e3d5ffd5b505050506040513d601f19601f8201168201806040525081019061168791906135e7565b90506006846003811061169d5761169c613612565b5b015f9054906101000a900473ffffffffffffffffffffffffffffffffffffffff1673ffffffffffffffffffffffffffffffffffffffff16632e1a7d4d836040518263ffffffff1660e01b81526004016116f6919061314e565b6020604051808303815f875af1158015611712573d5f5f3e3d5ffd5b505050506040513d601f19601f8201168201806040525081019061173691906135e7565b505f611740610af7565b73ffffffffffffffffffffffffffffffffffffffff166370a08231306040518263ffffffff1660e01b815260040161177891906133ae565b602060405180830381865afa158015611793573d5f5f3e3d5ffd5b505050506040513d601f19601f820116820180604052508101906117b791906135e7565b90505f82826117c69190613e96565b90508781106117d7575f97506117e6565b80886117e39190613e96565b97505b5050505050505b80806117f890613ec9565b91505061150b565b508561180a610af7565b73ffffffffffffffffffffffffffffffffffffffff166370a08231306040518263ffffffff1660e01b815260040161184291906133ae565b602060405180830381865afa15801561185d573d5f5f3e3d5ffd5b505050506040513d601f19601f8201168201806040525081019061188191906135e7565b10156118c2576040517f08c379a00000000000000000000000000000000000000000000000000000000081526004016118b990613f5a565b60405180910390fd5b505b6118cf8585856124db565b9150506118da6122f7565b9392505050565b600d5481565b5f6118f0612172565b5f8411611932576040517f08c379a000000000000000000000000000000000000000000000000000000000815260040161192990613fc2565b60405180910390fd5b61193a612194565b61194584848461255d565b905061194f6122f7565b9392505050565b5f7fffffffffffffffffffffffffffffffffffffffffffffffffffffffffffffffff9050919050565b5f61198a825f611f90565b9050919050565b5f6006600e54600381106119a8576119a7613612565b5b015f9054906101000a900473ffffffffffffffffffffffffffffffffffffffff16905090565b5f6119e06119db83611a1b565b610b47565b9050919050565b600681600381106119f6575f80fd5b015f915054906101000a900473ffffffffffffffffffffffffffffffffffffffff1681565b5f611a2582610bcb565b9050919050565b5f60015f8473ffffffffffffffffffffffffffffffffffffffff1673ffffffffffffffffffffffffffffffffffffffff1681526020019081526020015f205f8373ffffffffffffffffffffffffffffffffffffffff1673ffffffffffffffffffffffffffffffffffffffff1681526020019081526020015f2054905092915050565b611ab6612311565b611abe612172565b5f611ac7610af7565b73ffffffffffffffffffffffffffffffffffffffff166370a08231306040518263ffffffff1660e01b8152600401611aff91906133ae565b602060405180830381865afa158015611b1a573d5f5f3e3d5ffd5b505050506040513d601f19601f82011682018060405250810190611b3e91906135e7565b90505f6064604683611b509190613859565b611b5a9190613aef565b9050611b64610c3c565b5f8111611ba6576040517f08c379a0000000000000000000000000000000000000000000000000000000008152600401611b9d9061402a565b60405180910390fd5b5f6006600e5460038110611bbd57611bbc613612565b5b015f9054906101000a900473ffffffffffffffffffffffffffffffffffffffff169050611bf2611beb610af7565b82846125df565b5f611bfb610af7565b73ffffffffffffffffffffffffffffffffffffffff166370a08231306040518263ffffffff1660e01b8152600401611c3391906133ae565b602060405180830381865afa158015611c4e573d5f5f3e3d5ffd5b505050506040513d601f19601f82011682018060405250810190611c7291906135e7565b90505f600e5490506006600e5460038110611c9057611c8f613612565b5b015f9054906101000a900473ffffffffffffffffffffffffffffffffffffffff1673ffffffffffffffffffffffffffffffffffffffff16632afcf480856040518263ffffffff1660e01b8152600401611ce9919061314e565b5f604051808303815f87803b158015611d00575f5ffd5b505af1158015611d12573d5f5f3e3d5ffd5b505050505f611d1f610af7565b73ffffffffffffffffffffffffffffffffffffffff166370a08231306040518263ffffffff1660e01b8152600401611d5791906133ae565b602060405180830381865afa158015611d72573d5f5f3e3d5ffd5b505050506040513d601f19601f82011682018060405250810190611d9691906135e7565b83611da19190613e96565b9050848114611de5576040517f08c379a0000000000000000000000000000000000000000000000000000000008152600401611ddc90614092565b60405180910390fd5b611df7611df0610af7565b855f6125df565b7fece0186d56d8bcda3dc95c2dbe152350ec428be6a40394b670d0ccbb2ec006b88282604051611e289291906140b0565b60405180910390a1505050505050611e3e6122f7565b565b5f611e4b825f611f90565b9050919050565b611e5a612311565b5f73ffffffffffffffffffffffffffffffffffffffff168173ffffffffffffffffffffffffffffffffffffffff1603611eca575f6040517f1e4fbdf7000000000000000000000000000000000000000000000000000000008152600401611ec191906133ae565b60405180910390fd5b611ed381612398565b50565b611ede612311565b80600c819055507f3a2f5d016430ec9701f6422b7abd646f76f9f25e731a0bfff0e79d6a79c0191f81604051611f14919061314e565b60405180910390a150565b5f611f6f6001611f2d61084b565b611f37919061366c565b611f3f61216b565b600a611f4b9190614206565b611f53610a87565b611f5d919061366c565b8486612691909392919063ffffffff16565b905092915050565b5f33905090565b611f8b83838360016126de565b505050565b5f611fe0611f9c61216b565b600a611fa89190614206565b611fb0610a87565b611fba919061366c565b6001611fc461084b565b611fce919061366c565b8486612691909392919063ffffffff16565b905092915050565b5f611ff38484611a2c565b90507fffffffffffffffffffffffffffffffffffffffffffffffffffffffffffffffff8110156120755781811015612066578281836040517ffb8f41b200000000000000000000000000000000000000000000000000000000815260040161205d93929190614250565b60405180910390fd5b61207484848484035f6126de565b5b50505050565b5f73ffffffffffffffffffffffffffffffffffffffff168373ffffffffffffffffffffffffffffffffffffffff16036120eb575f6040517f96c6fd1e0000000000000000000000000000000000000000000000000000000081526004016120e291906133ae565b60405180910390fd5b5f73ffffffffffffffffffffffffffffffffffffffff168273ffffffffffffffffffffffffffffffffffffffff160361215b575f6040517fec442f0500000000000000000000000000000000000000000000000000000000815260040161215291906133ae565b60405180910390fd5b6121668383836128ad565b505050565b5f5f905090565b61217a612ac6565b600261218c612187612b07565b612b30565b5f0181905550565b5f600c540315612275575f600d54426121ad9190613e96565b90505f81036121bc5750612275565b5f6121c5610a87565b90505f81036121dc5742600d819055505050612275565b5f612710600c54836121ee9190613859565b6121f89190613aef565b90505f6301e13380848361220c9190613859565b6122169190613aef565b90505f8111156122705761223161222b61110e565b82612b39565b42600d819055507f860c0aa5520013080c2f65981705fcdea474d9f7c3daf954656ed5e65d692d1f81604051612267919061314e565b60405180910390a15b505050505b565b5f5f61228283610b1e565b9050808411156122cd578284826040517f79012fb20000000000000000000000000000000000000000000000000000000081526004016122c493929190614250565b60405180910390fd5b5f6122d785611e40565b90506122ec6122e4611f77565b858784612bb8565b809250505092915050565b6001612309612304612b07565b612b30565b5f0181905550565b612319611f77565b73ffffffffffffffffffffffffffffffffffffffff1661233761110e565b73ffffffffffffffffffffffffffffffffffffffff16146123965761235a611f77565b6040517f118cdaa700000000000000000000000000000000000000000000000000000000815260040161238d91906133ae565b60405180910390fd5b565b5f60055f9054906101000a900473ffffffffffffffffffffffffffffffffffffffff1690508160055f6101000a81548173ffffffffffffffffffffffffffffffffffffffff021916908373ffffffffffffffffffffffffffffffffffffffff1602179055508173ffffffffffffffffffffffffffffffffffffffff168173ffffffffffffffffffffffffffffffffffffffff167f8be0079c531659141344cd1fd0a4f28419497f9722a3daafe3b4186f6b6457e060405160405180910390a35050565b5f5f61246683611956565b9050808411156124b1578284826040517f284ff6670000000000000000000000000000000000000000000000000000000081526004016124a893929190614250565b60405180910390fd5b5f6124bb85611407565b90506124d06124c8611f77565b858388612bb8565b809250505092915050565b5f5f6124e6836119ce565b905080851115612531578285826040517ffe9cceec00000000000000000000000000000000000000000000000000000000815260040161252893929190614250565b60405180910390fd5b5f61253b86610a6e565b9050612551612548611f77565b86868985612c39565b80925050509392505050565b5f5f61256883611a1b565b9050808511156125b3578285826040517fb94abeec0000000000000000000000000000000000000000000000000000000081526004016125aa93929190614250565b60405180910390fd5b5f6125bd86610b47565b90506125d36125ca611f77565b8686848a612c39565b80925050509392505050565b6125eb8383835f612d11565b61268c576125fc83835f6001612d11565b61263d57826040517f5274afe700000000000000000000000000000000000000000000000000000000815260040161263491906133ae565b60405180910390fd5b61264a8383836001612d11565b61268b57826040517f5274afe700000000000000000000000000000000000000000000000000000000815260040161268291906133ae565b60405180910390fd5b5b505050565b5f6126bf61269e83612d73565b80156126ba57505f84806126b5576126b4613ac2565b5b868809115b612da0565b6126ca868686612dab565b6126d4919061366c565b9050949350505050565b5f73ffffffffffffffffffffffffffffffffffffffff168473ffffffffffffffffffffffffffffffffffffffff160361274e575f6040517fe602df0500000000000000000000000000000000000000000000000000000000815260040161274591906133ae565b60405180910390fd5b5f73ffffffffffffffffffffffffffffffffffffffff168373ffffffffffffffffffffffffffffffffffffffff16036127be575f6040517f94280d620000000000000000000000000000000000000000000000000000000081526004016127b591906133ae565b60405180910390fd5b8160015f8673ffffffffffffffffffffffffffffffffffffffff1673ffffffffffffffffffffffffffffffffffffffff1681526020019081526020015f205f8573ffffffffffffffffffffffffffffffffffffffff1673ffffffffffffffffffffffffffffffffffffffff1681526020019081526020015f208190555080156128a7578273ffffffffffffffffffffffffffffffffffffffff168473ffffffffffffffffffffffffffffffffffffffff167f8c5be1e5ebec7d5bd14f71427d1e84f3dd0314c0f7b2291e5b200ac8c7c3b9258460405161289e919061314e565b60405180910390a35b50505050565b5f73ffffffffffffffffffffffffffffffffffffffff168373ffffffffffffffffffffffffffffffffffffffff16036128fd578060025f8282546128f1919061366c565b925050819055506129cb565b5f5f5f8573ffffffffffffffffffffffffffffffffffffffff1673ffffffffffffffffffffffffffffffffffffffff1681526020019081526020015f2054905081811015612986578381836040517fe450d38c00000000000000000000000000000000000000000000000000000000815260040161297d93929190614250565b60405180910390fd5b8181035f5f8673ffffffffffffffffffffffffffffffffffffffff1673ffffffffffffffffffffffffffffffffffffffff1681526020019081526020015f2081905550505b5f73ffffffffffffffffffffffffffffffffffffffff168273ffffffffffffffffffffffffffffffffffffffff1603612a12578060025f8282540392505081905550612a5c565b805f5f8473ffffffffffffffffffffffffffffffffffffffff1673ffffffffffffffffffffffffffffffffffffffff1681526020019081526020015f205f82825401925050819055505b8173ffffffffffffffffffffffffffffffffffffffff168373ffffffffffffffffffffffffffffffffffffffff167fddf252ad1be2c89b69c2b068fc378daa952ba7f163c4a11628f55a4df523b3ef83604051612ab9919061314e565b60405180910390a3505050565b612ace612e8a565b15612b05576040517f3ee5aeb500000000000000000000000000000000000000000000000000000000815260040160405180910390fd5b565b5f7f9b779b17422d0df92223018b32b4d1fa46e071723d6817e2486d003becc55f005f1b905090565b5f819050919050565b5f73ffffffffffffffffffffffffffffffffffffffff168273ffffffffffffffffffffffffffffffffffffffff1603612ba9575f6040517fec442f05000000000000000000000000000000000000000000000000000000008152600401612ba091906133ae565b60405180910390fd5b612bb45f83836128ad565b5050565b612bc28483612ea6565b612bcc8382612b39565b8273ffffffffffffffffffffffffffffffffffffffff168473ffffffffffffffffffffffffffffffffffffffff167fdcbc1c05240f31ff3ad067ef1ee35ce4997762752e3a095284754544f4c709d78484604051612c2b9291906140b0565b60405180910390a350505050565b8273ffffffffffffffffffffffffffffffffffffffff168573ffffffffffffffffffffffffffffffffffffffff1614612c7857612c77838683611fe8565b5b612c828382612ebd565b612c8c8483612f3c565b8273ffffffffffffffffffffffffffffffffffffffff168473ffffffffffffffffffffffffffffffffffffffff168673ffffffffffffffffffffffffffffffffffffffff167ffbde797d201c681b91056529119e0b02407c7bb96a4a2c75c01fc9667232c8db8585604051612d029291906140b0565b60405180910390a45050505050565b5f5f63095ea7b360e01b9050604051815f525f1960601c86166004528460245260205f60445f5f8b5af1925060015f51148316612d65578383151615612d59573d5f823e3d81fd5b5f873b113d1516831692505b806040525050949350505050565b5f60016002836003811115612d8b57612d8a614285565b5b612d9591906142b2565b60ff16149050919050565b5f8115159050919050565b5f5f5f612db88686612f52565b915091505f8203612ddd57838181612dd357612dd2613ac2565b5b0492505050612e83565b818411612dfc57612dfb612df65f861460126011612f6f565b612f88565b5b5f8486880990508181118303925080820391505f855f038616905080860495508083049250600181825f0304019050808402831792505f600287600302189050808702600203810290508087026002038102905080870260020381029050808702600203810290508087026002038102905080870260020381029050808402955050505050505b9392505050565b5f6002612e9d612e98612b07565b612b30565b5f015414905090565b612eb9612eb1610af7565b833084612f99565b5050565b5f73ffffffffffffffffffffffffffffffffffffffff168273ffffffffffffffffffffffffffffffffffffffff1603612f2d575f6040517f96c6fd1e000000000000000000000000000000000000000000000000000000008152600401612f2491906133ae565b60405180910390fd5b612f38825f836128ad565b5050565b612f4e612f47610af7565b8383612fee565b5050565b5f5f5f198385098385029150818110828203039250509250929050565b5f612f7984612da0565b82841802821890509392505050565b634e487b715f52806020526024601cfd5b612fa7848484846001613041565b612fe857836040517f5274afe7000000000000000000000000000000000000000000000000000000008152600401612fdf91906133ae565b60405180910390fd5b50505050565b612ffb83838360016130b2565b61303c57826040517f5274afe700000000000000000000000000000000000000000000000000000000815260040161303391906133ae565b60405180910390fd5b505050565b5f5f6323b872dd60e01b9050604051815f525f1960601c87166004525f1960601c86166024528460445260205f60645f5f8c5af1925060015f5114831661309f578383151615613093573d5f823e3d81fd5b5f883b113d1516831692505b806040525f606052505095945050505050565b5f5f63a9059cbb60e01b9050604051815f525f1960601c86166004528460245260205f60445f5f8b5af1925060015f511483166131065783831516156130fa573d5f823e3d81fd5b5f873b113d1516831692505b806040525050949350505050565b6040518060600160405280600390602082028036833780820191505090505090565b5f819050919050565b61314881613136565b82525050565b5f6020820190506131615f83018461313f565b92915050565b5f81519050919050565b5f82825260208201905092915050565b8281835e5f83830152505050565b5f601f19601f8301169050919050565b5f6131a982613167565b6131b38185613171565b93506131c3818560208601613181565b6131cc8161318f565b840191505092915050565b5f6020820190508181035f8301526131ef818461319f565b905092915050565b5f5ffd5b61320481613136565b811461320e575f5ffd5b50565b5f8135905061321f816131fb565b92915050565b5f6020828403121561323a576132396131f7565b5b5f61324784828501613211565b91505092915050565b5f73ffffffffffffffffffffffffffffffffffffffff82169050919050565b5f61327982613250565b9050919050565b6132898161326f565b8114613293575f5ffd5b50565b5f813590506132a481613280565b92915050565b5f5f604083850312156132c0576132bf6131f7565b5b5f6132cd85828601613296565b92505060206132de85828601613211565b9150509250929050565b5f8115159050919050565b6132fc816132e8565b82525050565b5f6020820190506133155f8301846132f3565b92915050565b5f5f5f60608486031215613332576133316131f7565b5b5f61333f86828701613296565b935050602061335086828701613296565b925050604061336186828701613211565b9150509250925092565b5f60ff82169050919050565b6133808161336b565b82525050565b5f6020820190506133995f830184613377565b92915050565b6133a88161326f565b82525050565b5f6020820190506133c15f83018461339f565b92915050565b5f602082840312156133dc576133db6131f7565b5b5f6133e984828501613296565b91505092915050565b5f5f60408385031215613408576134076131f7565b5b5f61341585828601613211565b925050602061342685828601613296565b9150509250929050565b5f60a0820190506134435f83018861339f565b613450602083018761313f565b61345d604083018661313f565b61346a606083018561313f565b613477608083018461313f565b9695505050505050565b5f5ffd5b5f819050826020600302820111156134a05761349f613481565b5b92915050565b5f606082840312156134bb576134ba6131f7565b5b5f6134c884828501613485565b91505092915050565b5f5f5f606084860312156134e8576134e76131f7565b5b5f6134f586828701613211565b935050602061350686828701613296565b925050604061351786828701613296565b9150509250925092565b5f819050919050565b5f61354461353f61353a84613250565b613521565b613250565b9050919050565b5f6135558261352a565b9050919050565b5f6135668261354b565b9050919050565b6135768161355c565b82525050565b5f60208201905061358f5f83018461356d565b92915050565b5f5f604083850312156135ab576135aa6131f7565b5b5f6135b885828601613296565b92505060206135c985828601613296565b9150509250929050565b5f815190506135e1816131fb565b92915050565b5f602082840312156135fc576135fb6131f7565b5b5f613609848285016135d3565b91505092915050565b7f4e487b71000000000000000000000000000000000000000000000000000000005f52603260045260245ffd5b7f4e487b71000000000000000000000000000000000000000000000000000000005f52601160045260245ffd5b5f61367682613136565b915061368183613136565b92508282019050808211156136995761369861363f565b5b92915050565b7f4e487b71000000000000000000000000000000000000000000000000000000005f52602260045260245ffd5b5f60028204905060018216806136e357607f821691505b6020821081036136f6576136f561369f565b5b50919050565b5f6137068261336b565b91506137118361336b565b9250828201905060ff81111561372a5761372961363f565b5b92915050565b7f43616e2774206465706f736974203020617373657473000000000000000000005f82015250565b5f613764601683613171565b915061376f82613730565b602082019050919050565b5f6020820190508181035f83015261379181613758565b9050919050565b5f819050919050565b5f6137ab82613798565b91506137b683613798565b92508282019050828112155f8312168382125f8412151617156137dc576137db61363f565b5b92915050565b5f6137ec82613798565b91506137f783613798565b925082820390508181125f8412168282135f85121516171561381c5761381b61363f565b5b92915050565b7f4e487b71000000000000000000000000000000000000000000000000000000005f52604160045260245ffd5b5f60039050919050565b5f61386382613136565b915061386e83613136565b925082820261387c81613136565b915082820484148315176138935761389261363f565b5b5092915050565b5f8190506001806001038301049050919050565b5f819050919050565b5f82821b905092915050565b5f600883026138f27fffffffffffffffffffffffffffffffffffffffffffffffffffffffffffffffff826138b7565b6138fc86836138b7565b95508019841693508086168417925050509392505050565b5f61392e61392961392484613136565b613521565b613136565b9050919050565b5f819050919050565b61394783613914565b61395b61395382613935565b8484546138c3565b825550505050565b5f5f905090565b613972613963565b61397d81848461393e565b505050565b5f5b828110156139a3576139985f82840161396a565b600181019050613984565b505050565b818310156139df576139b98261389a565b6139c28461389a565b6139cb836138ae565b8181016139da83850382613982565b505050505b505050565b680100000000000000008211156139fe576139fd613822565b5b613a078161384f565b613a128382846139a8565b505050565b5f60039050919050565b5f613a2c8251613136565b80915050919050565b5f819050919050565b613a4782613a17565b67ffffffffffffffff811115613a6057613a5f613822565b5b613a6a81836139e4565b613a7383613a35565b613a7c836138ae565b600183045f5b81811015613ab9575f613a9485613a21565b613a9d81613935565b8092506020870196505050808285015550600181019050613a82565b50505050505050565b7f4e487b71000000000000000000000000000000000000000000000000000000005f52601260045260245ffd5b5f613af982613136565b9150613b0483613136565b925082613b1457613b13613ac2565b5b828204905092915050565b7f43616e2774206d696e74203020736861726573000000000000000000000000005f82015250565b5f613b53601383613171565b9150613b5e82613b1f565b602082019050919050565b5f6020820190508181035f830152613b8081613b47565b9050919050565b5f613b918261326f565b9050919050565b613ba181613b87565b8114613bab575f5ffd5b50565b5f81359050613bbc81613b98565b92915050565b5f60208284031215613bd757613bd66131f7565b5b5f613be484828501613bae565b91505092915050565b7f496e76616c6964207374726174656779000000000000000000000000000000005f82015250565b5f613c21601083613171565b9150613c2c82613bed565b602082019050919050565b5f6020820190508181035f830152613c4e81613c15565b9050919050565b7f4475706c696361746520737472617465677900000000000000000000000000005f82015250565b5f613c89601283613171565b9150613c9482613c55565b602082019050919050565b5f6020820190508181035f830152613cb681613c7d565b9050919050565b5f60039050919050565b5f8190506001806001038301049050919050565b5f819050919050565b5f5b82811015613d0557613cfa5f82840161396a565b600181019050613ce6565b505050565b81831015613d4157613d1b82613cc7565b613d2484613cc7565b613d2d83613cdb565b818101613d3c83850382613ce4565b505050505b505050565b68010000000000000000821115613d6057613d5f613822565b5b613d6981613cbd565b613d74838284613d0a565b505050565b5f60039050919050565b5f8135613d8f81613b98565b80915050919050565b5f819050919050565b5f819050919050565b613db382613d79565b67ffffffffffffffff811115613dcc57613dcb613822565b5b613dd68183613d46565b613ddf83613d98565b613de883613cdb565b600183045f5b81811015613e25575f613e0085613d83565b613e0981613da1565b8092506020870196505050808285015550600181019050613dee565b50505050505050565b7f43616e27742077697468647261772030206173736574730000000000000000005f82015250565b5f613e62601783613171565b9150613e6d82613e2e565b602082019050919050565b5f6020820190508181035f830152613e8f81613e56565b9050919050565b5f613ea082613136565b9150613eab83613136565b9250828203905081811115613ec357613ec261363f565b5b92915050565b5f613ed382613136565b91507fffffffffffffffffffffffffffffffffffffffffffffffffffffffffffffffff8203613f0557613f0461363f565b5b600182019050919050565b7f496e73756666696369656e74204c6971756964697479000000000000000000005f82015250565b5f613f44601683613171565b9150613f4f82613f10565b602082019050919050565b5f6020820190508181035f830152613f7181613f38565b9050919050565b7f43616e27742072656465656d20302073686172657300000000000000000000005f82015250565b5f613fac601583613171565b9150613fb782613f78565b602082019050919050565b5f6020820190508181035f830152613fd981613fa0565b9050919050565b7f4e6f7468696e6720746f20696e766573740000000000000000000000000000005f82015250565b5f614014601183613171565b915061401f82613fe0565b602082019050919050565b5f6020820190508181035f83015261404181614008565b9050919050565b7f496e7665737420616d6f756e74206d69736d61746368000000000000000000005f82015250565b5f61407c601683613171565b915061408782614048565b602082019050919050565b5f6020820190508181035f8301526140a981614070565b9050919050565b5f6040820190506140c35f83018561313f565b6140d0602083018461313f565b9392505050565b5f8160011c9050919050565b5f5f8291508390505b600185111561412c578086048111156141085761410761363f565b5b60018516156141175780820291505b8081029050614125856140d7565b94506140ec565b94509492505050565b5f8261414457600190506141ff565b81614151575f90506141ff565b81600181146141675760028114614171576141a0565b60019150506141ff565b60ff8411156141835761418261363f565b5b8360020a91508482111561419a5761419961363f565b5b506141ff565b5060208310610133831016604e8410600b84101617156141d55782820a9050838111156141d0576141cf61363f565b5b6141ff565b6141e284848460016140e3565b925090508184048111156141f9576141f861363f565b5b81810290505b9392505050565b5f61421082613136565b915061421b8361336b565b92506142487fffffffffffffffffffffffffffffffffffffffffffffffffffffffffffffffff8484614135565b905092915050565b5f6060820190506142635f83018661339f565b614270602083018561313f565b61427d604083018461313f565b949350505050565b7f4e487b71000000000000000000000000000000000000000000000000000000005f52602160045260245ffd5b5f6142bc8261336b565b91506142c78361336b565b9250826142d7576142d6613ac2565b5b82820690509291505056fea2646970667358221220bcf3779895ad746a7326b629d7be3053b519f4051cf81d004bcc07198549f42e64736f6c63430008210033",
    "linkReferences": {}
  },
  "methodIdentifiers": {
    "INVEST_PERCENTAGE()": "67b950f0",
    "activeStrategy()": "cd3c4255",
    "activeStrategyId()": "148529b1",
    "allowance(address,address)": "dd62ed3e",
    "approve(address,uint256)": "095ea7b3",
    "asset()": "38d52e0f",
    "balanceOf(address)": "70a08231",
    "collectManagementFee()": "9c016ffd",
    "convertToAssets(uint256)": "07a2d13a",
    "convertToShares(uint256)": "c6e6f592",
    "decimals()": "313ce567",
    "deposit(uint256,address)": "6e553f65",
    "getVaultInfo()": "7f98aa71",
    "invest()": "e8b5e51f",
    "lastFeeUpdate()": "b96bedb2",
    "managementFee()": "a6f7f5d6",
    "maxDeposit(address)": "402d267d",
    "maxMint(address)": "c63d75b6",
    "maxRedeem(address)": "d905777e",
    "maxWithdraw(address)": "ce96cb77",
    "mint(uint256,address)": "94bf804d",
    "name()": "06fdde03",
    "owner()": "8da5cb5b",
    "previewDeposit(uint256)": "ef8b30f7",
    "previewMint(uint256)": "b3d7f6b9",
    "previewRedeem(uint256)": "4cdad506",
    "previewWithdraw(uint256)": "0a28a477",
    "rebalance()": "7d7c2a1c",
    "redeem(uint256,address,address)": "ba087652",
    "renounceOwnership()": "715018a6",
    "setManagementFee(uint256)": "fe56e232",
    "setStrategies(address[3])": "9dabe558",
    "strategies(uint256)": "d574ea3d",
    "strategyOrder(uint256)": "7bd37d44",
    "symbol()": "95d89b41",
    "totalAssets()": "01e1d114",
    "totalSupply()": "18160ddd",
    "transfer(address,uint256)": "a9059cbb",
    "transferFrom(address,address,uint256)": "23b872dd",
    "transferOwnership(address)": "f2fde38b",
    "withdraw(uint256,address,address)": "b460af94"
  },
  "id": 45
}